:100000000C9438020C948A020C948A020C948A0292
:100010000C948A020C948A020C948A020C948A0230
:100020000C948A020C948A020C943C1D0C940F1EB2
:100030000C94A9170C948A020C948A020C948A02DC
:100040000C948A020C948A020C948A020C948A0200
:100050000C948A020C94F4170C948A020C948A0271
:100060000C948A020C948A020C948A020C948A02E0
:100070000C948A020C948A020C948A020C948A02D0
:100080000C948A020C948A020C948A020C948A02C0
:100090000C948A020C948A020C948A020C948A02B0
:1000A0000C948A020C948A020C948A025D0A002540
:1000B000303258005B0020002530325800283129AA
:1000C0000A002832290A002833290A002834290A7C
:1000D000000A0025303258006D303131305F7265D2
:1000E0006376206572723A20000A0025303258008B
:1000F0006D303131305F73656E64206572723A2005
:100100000004001600070009000B000A001D001B78
:1001100000060019000000050014001A0008001570
:10012000001C0017001E001F0020002100230022D9
:10013000002E00260024002D00250027003000128C
:100140000018002F000C00130028000F000D0034D1
:10015000000E003300314136003800110010003726
:10016000002B002C0029002A00015100000000E0B3
:1001700000E1008200E2000000000000000000003A
:1001800000000063004F000000000000005000531A
:10019000005100000000000000580052005600000E
:1001A0000000000000620059005A005B005C005D26
:1001B000005E005F000000600061000000000000C1
:1001C0000000000000550000000000000057000083
:1001D0000067000000000000000000540000000064
:1001E000001F0251004F000000000000004D000001
:1001F000004E000000000000004A0052004B0021A9
:1002000002000000003A003B003C003D003F003E81
:1002100000450042004000440041004300490047BF
:1002200000000052004600480028004B0000004F2C
:10023000004A00500001004D005100000000004E37
:10024000002B002C0035004C00010000000000E0F5
:1002500000E0008200E2000000000000000000005A
:1002600000000063004D000000000000004A005341
:10027000004E0000000000000058004B0056000037
:100280000000000000620059005A005B005C005D45
:10029000005E005F000000600061000000000000E0
:1002A00000000000005500000000000000570000A2
:1002B000002E0000000000000000005400000000BC
:1002C0000044454255473A2064697361626C656435
:1002D0002E0A0044454255473A20656E61626C65BE
:1002E000642E0A000A002530325820006B657962BE
:1002F0006F6172645F7265706F72743A20000A00F9
:1003000025303258006B6579626F6172645F736586
:10031000745F6C65643A20005B735D004B657962C5
:100320006F6172642073746172742E0A005B575D92
:10033000005B535D005B525D005B445D005B435DB1
:100340000004033000000012034D00300031003182
:1003500000300028004100290000000C034100701B
:100360000070006C00650000000403090409025BD2
:1003700000030100A0FA09040000010301010009C3
:1003800021110100012240000705810308000A092C
:1003900004010001030000000921110100012232C3
:1003A000000705820320000A09040200020300007E
:1003B000000921110100012222000705830320000A
:1003C00001070503032000011201100100000008CD
:1003D000EDFE10010101010203010631FF0974A1C4
:1003E000010975150026FF00952075088102097620
:1003F000150026FF00952075089102C005010980AF
:10040000A101850319012AB700150126B70095013E
:1004100075108100C0050C0901A101850419012A8C
:10042000A002150126A002950175108100C00501EA
:100430000906A101050719E029E71500250195081E
:10044000750181029501750881010507190029FFD1
:10045000150026FF00950675088100050819012979
:1004600005950575019102950175039101C0640818
:1004700011241FBECFEFDAE0DEBFCDBF04B603FE0E
:1004800027C080917E0290917F02A0918002B0915E
:1004900081028730904BA740B04BD1F410927E027E
:1004A00010927F02109280021092810214BE84B7D3
:1004B000877F84BF0FB6F894A8958091600088610B
:1004C00080936000109260000FBEE0E0F8E30995B1
:1004D00011E0A0E0B1E0E8E9F0E402C005900D927F
:1004E000AA38B107D9F722E0AAE8B1E001C01D920D
:1004F000AE37B207E1F712E0C8E3D2E004C02197BB
:10050000FE010E94CC1FC733D107C9F70E94671AAA
:100510000C9414200C940000FF93EF93E0918A0157
:10052000F0918B01309709F00995EF91FF910895B3
:10053000FC018591803011F0EFDFFBCF0895FF279C
:10054000E0E230E247FF0CC0419597FF09C0EDE2C1
:100550006095709580959095611D711D811D911D0F
:1005600027FF02C0219530E350E2AA27660F771FCC
:10057000881F991FAA1FA41710F0A41B63955A95F2
:10058000A9F7AA3008F0A95FA05DAF93F3956115B4
:1005900071058105910541F7ED3211F4EF93F39563
:1005A000F21718F43F93F395FBCF8F91B5DFFA95CF
:1005B000E1F70895E991F9918591803021F0853234
:1005C00019F0AADFF9CF089520E0E894559155324B
:1005D000C1F3503311F4689455915A3348F4505391
:1005E00090F3220F022E220F220F200D250FF4CFA1
:1005F0000EF4219589919991533619F3533729F1C6
:10060000533559F1BC0188279927E8945C3621F4C9
:100610008991999168945591543639F446EF7EF05A
:1006200077FF0DC08FEF9FEF0AC055374AE039F0D2
:10063000583540E121F0523642E009F00895FF9329
:10064000EF937DDFEF91FF91B7CFFF93EF93FC0125
:1006500081918030B9F360DFFBCFFF93EF9368DFC8
:10066000F1CFDF93CF93CDB7DEB72596A3DFCF9140
:10067000DF91089508950C943A0308950C943D0376
:100680000E94D403ECE8F1E0119281E0EA39F80726
:10069000D9F78CE891E090939B0180939A010C9498
:1006A000D505CF930E94EE04C82F8B3709F43FC0C5
:1006B0008F3FE9F120919A0130919B01E82FE69557
:1006C000E695E695482F477081E090E001C0880FDD
:1006D0004A95EAF7C7FF25C0EF70E20FF32FF11D2F
:1006E000809590818923808380915B0280FF14C074
:1006F00084EB90E00E9498021F92CF938FEA90E0E3
:100700009F938F930E9431038CEA90E00E9498029D
:100710000F900F900F900F900E94DD0581E0CF9118
:100720000895E20FF32FF11D9081892BDCCF80E03B
:10073000F6CF0895E0919A01F0919B01E80FF11D29
:10074000808108955198599A08955898509A08951B
:100750005098589A08955198599A85E08A95F1F7DA
:10076000000089B1869581700895CF93DF93EC01E5
:100770000E94AB03882311F0209721F4CE01DF9172
:10078000CF91089585E08A95F1F700002197F0CF89
:100790008B3749F08F3F39F0282F30E0359527957A
:1007A0002F738078822B08950E94A2030E94A803D1
:1007B0002FEF83ED90E3215080409040E1F700C09F
:1007C00000000895EF92FF920F931F93CF93DF9352
:1007D000E82E10929F010E94A2030E94A503CAEF77
:1007E000D0E088EE93E00E94B503892B21F4219795
:1007F000C1F781E00BC008E010E080E8F82E8AEF36
:1008000090E00E94B503892B41F583E080939F011E
:1008100080EF90E00E94980280919F011F928F9339
:100820008BEE90E09F938F930E94310389EE90E0CE
:100830000E9498029FEF29E688E191502040804075
:10084000E1F700C000000E94A2030E94A8030F90DD
:100850000F900F900F9080E02AC08E2D8F2161F0B5
:100860000E94A803C8ECD0E00E94AB0381110DC028
:10087000209729F484E0CACF0E94A503F3CF25E096
:100880002A95F1F700002197EFCFCD2B99F3F6943D
:100890000150110909F0B3CF8FE891E00197F1F70A
:1008A00000C000000E94A2030E94A80381E0DF9123
:1008B000CF911F910F91FF90EF9008950F931F9389
:1008C000CF93DF9310929F01CAEFD0E088EE93E0C0
:1008D0000E94B503892B21F42197C1F781E00AC05A
:1008E000D8E0C0E0CC0F88EC90E00E94B503892BE3
:1008F000B9F582E080939F0188ED90E00E94980214
:1009000080919F011F928F9383ED90E09F938F932F
:100910000E94310381ED90E00E9498029FEF29E64A
:1009200088E1915020408040E1F700C000000E9423
:10093000A2030E94A8030F900F900F900F90CFEF8B
:1009400023C025E02A95F1F70000015011090E940B
:10095000AB03811108C00115110599F783E0CACFD7
:1009600008EC10E0F4CF012BC9F35098589A85E0B9
:100970008A95F1F700004899C160D15009F0B2CFD3
:100980000E94A2030E94A8038C2FDF91CF911F9198
:100990000F910895CF9384E10E94E2030E945E04C8
:1009A000C82F8B37C1F080915B0280FF14C01F926B
:1009B000CF9388EB90E09F938F930E9431038091B7
:1009C0005B020F900F900F900F9080FF04C086EB9A
:1009D00090E00E9498028C2FCF9108951F93CF939F
:1009E000DF93C0919E01CC2339F010929E018C2F91
:1009F000DF91CF911F910895C0919D01CC2319F0F3
:100A000010929D01F4CFC0919C01CC23E9F010928B
:100A10009C018C2F8F77813711F1893769F50E94FE
:100A2000CA04982F9F77913129F090F4982F9777E7
:100A3000953081F487FF0EC00E94C803C82FC064A0
:100A4000806680939E01D3CF0E94CA04C82FE1CF55
:100A50009B3181F30E94C803C82FC064C8CF0E9495
:100A6000CA04982F9F77913729F0993759F00E943F
:100A7000C80331C080939C018C2FDF91CF911F91CF
:100A80000C94C8030E94CA04D82F8F77813129F0B3
:100A9000E0F48D2F87778530D1F4C7FF1FC08C2FEE
:100AA0000E94C803C82F87EC90E0D7FF29C08CECC8
:100AB00090E00E949802C0939D018D2F0E94C80370
:100AC000982F906690939E01C7CF8B3131F38D2F75
:100AD0000E94C803806480939E01CECF8D2F0E9418
:100AE000C803182FC82FC0668DEB90E0D7FF08C051
:100AF00082EC90E00E949802C0939E01C12FADCF7E
:100B00000E94980274CF81E0089581E008950C94CA
:100B1000850508950C9489051F93CF93DF9300D02A
:100B200000D00F92CDB7DEB749835A836B833091E3
:100B3000C70189819A8131111DC06623B9F0222332
:100B4000A9F00E940515182F682F89819A810E94AB
:100B5000AF1469817A81812F0F900F900F900F90C1
:100B60000F90DF91CF911F910C9454060E94DC14DA
:100B7000182FEFCF0E94051569817A81EDCFFC0116
:100B8000262F408151816281738184810C948C0570
:100B9000CF93DF93D82FC92F60E00E94BF056D2F40
:100BA0007C2FDF91CF910C948A050E9459168111F8
:100BB00002C00E94F6160C943B030C943E03089569
:100BC0000C94DF0581E008950C94E205CF93C82FC3
:100BD0000E94E0058C2FCF910C94E40508950E94AB
:100BE000620F0E94EE052FEF84E39CE021508040CD
:100BF0009040E1F700C000000C9418180F931F9369
:100C0000CF93DF93EC0161E00E94BF058C01BE0130
:100C10000E948705882311F1BE01C8010E940A09BC
:100C20008823E1F0BE01C8010E944E098823B1F07B
:100C3000BE01C8010E94210A882381F08A8188238D
:100C400041F101308CE5180779F00E3D8CE518076D
:100C5000E9F001151C45E9F40E94EF0580E0DF9101
:100C6000CF911F910F91089590915B02892F8E7FF4
:100C700090FF816080935B0280FF05C083ED92E06E
:100C80000E949802EBCF81EC92E0FACF0E94F61618
:100C9000E5CFCE01DF91CF911F910F910C94830589
:100CA00090E080E008950895E72FF0E09EE0899FAE
:100CB000E00DF11D112483E0EE0FFF1F8A95E1F78F
:100CC000E60FF11DEE0FFF1FEF5FFE4F8591949130
:100CD0000895FC01EE0FFF1FEC51FD4F859194919B
:100CE0000895CF93DF930E9454060E947C07EC0185
:100CF000811521E5920708F048C0811530E593077A
:100D000008F0AFC0803E910518F5803C910508F0D1
:100D100096C0883A910570F4853A910508F08CC028
:100D20008130910531F10497813A910510F1D0E0BD
:100D3000C0E01FC08F3B9105D1F3C85AD0E0CC0F63
:100D4000DD1FC35FDE4F0990D881C02DD46411C070
:100D5000811540E3940788F4C11580E2D80708F0B4
:100D600074C0C83ED10528F0CE019A9581159F41E7
:100D7000F0F6CE01DF91CF910895811530E493070D
:100D800008F466C0DF70D06AF4CF8115964560F52F
:100D9000C11585E5D80708F096C0C11594E5D907B7
:100DA000F0F4C11523E5D20708F079C0C11532E58A
:100DB000D30708F46FC0CE018370992721E030E09B
:100DC00002C0220F331F8A95E2F7C695C69540E20E
:100DD000C49FE0011124C22BD32BDC68CACFDC2FC7
:100DE000CC27C46FD06AC5CFC1158AE5D80788F46F
:100DF000C11599E5D90708F071C0CE0198558F3F0C
:100E0000910511F008F093CFDC2FCC27C06FD06A8A
:100E1000B0CFCE0190568115904208F088CF8D2F2B
:100E20008F710E94140890E0982F882788279F715F
:100E30009C012C2BE90150C0A497D0649ACF805C10
:100E400091090E946906EC0194CFCE019F70F9CF01
:100E50009927D3FF03C0EC01D86C8BCFEC01D06C89
:100E600088CF74E0969587957A95E1F783702C2F5B
:100E700026952695237040E2249F90011124382B5B
:100E80008C2F8370C1E0D0E002C0CC0FDD1F8A95AB
:100E9000E2F7A1CFDC2FCC27C16FD06A6ACFCE0199
:100EA0008370992721E030E002C0220F331F8A951A
:100EB000E2F7C695C69580E2C89FE0011124C22BD7
:100EC000D32BDA6856CF8C2F0E941408C82FD0E09D
:100ED000DC2FCC27CC27DF71D0624BCF8C2F8F70CB
:100EE0000E94140834E0D695C7953A95E1F7CF7083
:100EF000DC2FC82FD0693DCF803E910599F1C8F411
:100F00008133910509F476C048F48932910509F4DA
:100F10006AC08A32910509F474C008958933910535
:100F2000D1F082389105B9F08533910509F454C0A8
:100F30000895843E910599F138F4823E9105F9F0C7
:100F4000833E910509F10895863E910599F1873E0A
:100F50009105B9F1089520916F022370A1F080EE00
:100F600090E0089520916F0220FD52C030917002F0
:100F700030FF09C024FF4FC090E080E004C0209102
:100F80006F0222FDF7CF089520916F0222FD46C027
:100F90003091700230FDE3CF24FFF5CFEDCF2091EB
:100FA000700221FFF0CF80916F0284FDE5CF87EEC4
:100FB00090E0089520916F0223FFE5CF24FDDCCF60
:100FC000F6CF20916F0223FD2CC03091700231FFCB
:100FD000E3CF84EE90E0089520916F0225FFD3CFF8
:100FE00089E290E0089520916F0225FFCCCF85E340
:100FF00090E0089520916F0226FFC5CF8AE290E02D
:10100000089520916F0226FFBECF81E390E00895FE
:1010100089E390E0089583EE90E0089582EE90E0F9
:10102000089586EE90E0089590916F0292FF06C0B9
:10103000282F28712830F9F4877F846093FF06C039
:10104000282F28712831F1F4877E84612091700265
:1010500020FF06C0382F38713830D9F4877F81607F
:1010600021FF06C0282F28712831D1F4877E8161A5
:1010700094FD877E0895282F24712430F9F68B7F04
:101080008860DCCF282F2471243101F78B7E8861A2
:10109000DDCF382F3171313019F78E7F8860E0CF86
:1010A000282F2171213121F78E7E8861E1CF0895AB
:1010B00090E080E008958FEF9FEF0895862F0E94C3
:1010C000571881E090E00895E0EAF1E0138212827F
:1010D00088EE93E0A0E0B0E084839583A683B78395
:1010E0008FE391E0918380830895CF92DF92EF9216
:1010F000FF920F931F93CF93DF938C01EB016B0152
:10110000C40ED51EF12CE12CCC15DD0561F0D80103
:10111000ED91FC910190F081E02D6991C801099554
:10112000E80EF91EF1CFC701DF91CF911F910F910A
:10113000FF90EF90DF90CF9008950F931F93CF9380
:10114000DF93C62FD42F022FFC0182818823C9F0A0
:101150006093B0010E94D9179093AF018093AE01C4
:1011600080E28C0F883008F050C0C77081E001C069
:10117000880FCA95EAF7DF91CF911F910F910C94D8
:10118000C70C1091B001161335C08091AE0190913B
:10119000AF010E94E517883C910560F5C0E2CD0FD4
:1011A0001D17B9F080E2810F883040F4177081E09C
:1011B00001C0880F1A95EAF70E94CE0CC83048F497
:1011C00081E09D2F977001C0880F9A95EAF70E94E1
:1011D000C70C802F0E94B40CC830B8F4D77081E0DF
:1011E00001C0880FDA95EAF7DF91CF911F910F9137
:1011F0000C94CE0C80E28C0F883038F4C77081E0FC
:1012000001C0880FCA95EAF7EFCFDF91CF911F9108
:101210000F9108959C01CB01233F4CE5340769F100
:1012200090F4283DFCE53F0721F1293D4CE53407CA
:1012300081F1273D3C45B1F0FC018281882361F1B9
:101240001092B0010895253FFCE53F07D1F0263FFD
:101250004CE53407D1F0243F3C4571F727E245EED9
:1012600064EE03C026E241EE61EE0E949D0880E03C
:10127000089527E245EE65EEF8CF26E241EE60EEF6
:10128000F4CF26E241EE62EEF0CF27E245EE66EEC5
:10129000ECCF28E241E0EFCF81E00895CF93DF93D8
:1012A000EC01FB018281882309F4C9C0C631FCE549
:1012B000DF07E0F4C2309CE5D907F0F00E946C161D
:1012C0009093700280936F02C631ECE5DE0720F543
:1012D000C230FCE5DF0798F480916F0290917002B4
:1012E0000E947A160E94620F80E006C09E012A5F6B
:1012F0003C452930310510F3DF91CF910895FE016F
:10130000E350FC4580916F028160E331F10588F480
:10131000EA5EFF4D0C94CC1FCA5FDC45C930D10595
:10132000D8F6C75DDF4DFE010C94CC1F80916F0293
:10133000826080936F02D0CF80916F028460F9CF7A
:1013400080916F028860F5CF8091700281608093F8
:101350007002C2CF809170028260F9CF80916F02DB
:101360008061E7CF80916F028062E3CF80916F024E
:101370008064DFCF0E94620F80916F028068D9CFB6
:1013800080916F028C60D5CF809170028360DFCF37
:1013900080916F028E7FCDCF80916F028D7FC9CFFC
:1013A00080916F028B7FC5CF80916F02877FC1CF05
:1013B000809170028E7FCBCF809170028D7FC7CFDE
:1013C00080916F028F7EB5CF80916F028F7DB1CFFC
:1013D00080916F028F7BADCF0E94620F80916F0270
:1013E0008F77A7CF80916F02837FA3CF8091700208
:1013F0008C7FADCF80916F0282FB992790F921E01D
:10140000922790FB82F990FB83F993CF8091700231
:10141000982F909591708E7F892B90FB81F997CFB3
:101420000E94620F90916F02892F97FB87F9805875
:1014300080CF81E00E94F8164FCF80E0FBCF81E0A3
:101440005BCFCF93DF93EB0186319C4511F50E9472
:10145000A2159A81992399F08A7A91E009F490E093
:101460009093B101811109C089E20E947D150E940B
:10147000F11580E0DF91CF91089585E3F6CF80915B
:10148000B101811104C089E20E948415F0CF85E387
:10149000FBCF81E0EFCF9093B7018093B601089521
:1014A000E091B601F091B701309721F00190F08101
:1014B000E02D099480E00895EF92FF920F931F931F
:1014C000CF93DF938C01E091B601F091B701309793
:1014D000C1F10280F381E02D099580915B0282FFCA
:1014E00030C080FF04C08CEE92E00E949802D0E0F1
:1014F000C0E086EEE82E82E0F82E80915B0280FF4D
:101500000EC0F801EC0FFD1F80811F928F93FF9298
:10151000EF920E9431030F900F900F900F90219641
:10152000C830D10551F780915B0280FF0AC084EE7C
:1015300092E0DF91CF911F910F91FF90EF900C946B
:101540009802DF91CF911F910F91FF90EF90089536
:101550002091B4013091B5012817390771F09093AB
:10156000B5018093B401E091B601F091B7013097D5
:1015700021F00680F781E02D099408952091B201B1
:101580003091B3012817390771F09093B30180931C
:10159000B201E091B601F091B701309721F00084DB
:1015A000F185E02D0994089585B7806885BF85B7DA
:1015B000806885BF0895089508950C94DB0A089506
:1015C0000C94DF0A0E94D40A0E94DC0A0C94DD0A03
:1015D00081E008950C94E80A0E94D0170E9440030D
:1015E0000E9429180C94E00ACF93C82F80915B02C7
:1015F00082FF1EC080FF1CC085E093E00E9498021D
:1016000080915B0280FF14C01F92CF9380E093E033
:101610009F938F930E94310380915B020F900F90F4
:101620000F900F9080FF04C08EEF92E00E9498020E
:101630008C2FCF910C94E605AF92BF92CF92DF92A0
:10164000EF92FF920F931F93CF93DF9300D000D0C0
:101650000F92CDB7DEB70E9451030E94EA0A882399
:1016600009F45BC089EBA82E81E0B82E10E000E001
:10167000C02E802F0E949A03F82EF501D1905F01B1
:10168000D81609F444C080915B0281FD0E94990341
:1016900080E0EE24E394DF249D2D9E21A1F1898337
:1016A000CA82FE2081E009F480E08B830E94D91772
:1016B0008160782F9D838C8349815A816B818D81D4
:1016C0000E94AE0BF801E754FE4F8081E826E082CD
:1016D0000E94500A9091B801891781F10E94500A26
:1016E0008093B8010F900F900F900F900F90DF91A3
:1016F000CF911F910F91FF90EF90DF90CF90BF900F
:10170000AF900C94F40A8F5FEE0C883029F60F5FCF
:101710001F4F0E30110509F0ABCF8FEF89838A83FD
:101720001B820E94D9178160782F9D838C83498109
:101730005A816B818D810E94AE0BCACF0F900F90A2
:101740000F900F900F90DF91CF911F910F91FF900D
:10175000EF90DF90CF90BF90AF900895CF93DF933D
:10176000CDB7DEB72B970FB6F894DEBF0FBECDBF57
:101770004F83588769877A878B871E8285E0FE01B1
:101780003796DE01119601900D928A95E1F7498115
:101790005A816B817C818D819E812B960FB6F89446
:1017A000DEBF0FBECDBFDF91CF910C94C511FC0100
:1017B000808191810C944715CF93C82F882309F419
:1017C00082C08238C1F40E94500A81FD7CC089E346
:1017D0000E947D150E94F1152FEF31EE84E021501B
:1017E00030408040E1F700C0000089E30E9484158A
:1017F000CF910C94F1158338A1F40E94500A80FD1A
:1018000062C083E50E947D150E94F1159FEF21EED5
:1018100034E0915020403040E1F700C0000083E503
:10182000E5CF8438A1F40E94500A82FD4CC087E4C1
:101830000E947D150E94F1158FEF91EE24E08150FA
:1018400090402040E1F700C0000087E4CFCF8CEF4C
:101850008C0F813A90F46C2F8091000190910101DE
:101860000E940F17882329F08C2F0E9484150E9454
:10187000F1158C2F0E947D15BBCF80E28C0F883034
:1018800048F4C77081E001C0880FCA95EAF70E944A
:10189000A515AECF8BE58C0F833038F42C2F245256
:1018A000330BC901CF910C94A80AC85AC73158F418
:1018B000EC2FF0E0EE0FFF1FE35BFE4F8081918184
:1018C000CF910C94BE0ACF910895882309F44BC0A0
:1018D000823871F40E94500A81FF45C089E30E945A
:1018E0007D150E94F11589E30E9484150C94F11571
:1018F000833859F40E94500A80FF35C083E50E9466
:101900007D150E94F11583E5EFCF843859F40E94CC
:10191000500A82FF28C087E40E947D150E94F115BD
:1019200087E4E2CF9CEF980F913AF0F290E2980FA3
:10193000983050F4877091E001C0990F8A95EAF7CA
:10194000892F0E94AB15D2CF9BE5980F933020F4DE
:1019500090E080E00C94A80A885A873120F490E047
:1019600080E00C94BE0A0895CF93C82F0E94DC0B30
:10197000C93349F42FEF87EE93E021508040904027
:10198000E1F700C000008C2FCF910C94650C8823E8
:1019900021F00E94A5150C94F1150895882321F0DB
:1019A0000E94AB150C94F1150895AF92BF92CF929F
:1019B000DF92EF92FF920F931F93CF93DF9300D0AC
:1019C00000D00F92CDB7DEB76C016D837983FC0137
:1019D000058102950F70128111110E94C4150E9499
:1019E0009B15E82E882371F01123B1F08D81805E64
:1019F000883090F082E00E943C160E949B1591E096
:101A0000E82EE926A980A2949FE0A922B12CF50135
:101A1000EE5CFF4D0C94CC1FE12CF4CF09810F70CC
:101A2000F981F07F11F00295007F1123B1F00023BE
:101A300061F08D81805E883018F02D81211109C000
:101A4000802F0E94A5150E94F1158D810E94DC0B4C
:101A500015C0802F0E94B615F6CF8D810E94650CAF
:101A6000002361F08D81805E883018F04D81411136
:101A700033C0802F0E94AB150E94F11558E0A51AC3
:101A8000B10864E0A616B10420F40E94500A0E9436
:101A9000E605EE2009F4C1C10E94971580FDBDC185
:101AA000F60112820E9491150E949F13C6010E94A6
:101AB000340F0E9491150F900F900F900F900F9080
:101AC000DF91CF911F910F91FF90EF90DF90CF901A
:101AD000BF90AF900C94D013802F0E94BC15CCCF38
:101AE00059815F70F52E6981607F603219F0F29440
:101AF00080EFF8227D81772369F0713049F111235D
:101B000091F1002351F1F601858180FF9ECF8F7006
:101B1000858323C0112381F0011106C00E94D815CE
:101B20008F290E94C70CAACF0130C1F70E94D81597
:101B30008F290E94DE15A2CF011106C00E94E71571
:101B40008F2D0E94CE0C9ACF013009F497CFF6CF9B
:101B5000112329F0063008F091CF8F2DE2CF053008
:101B600008F08CCFEDCF002359F3FD81F93349F410
:101B70002FEF47EE53E0215040405040E1F700C0C6
:101B800000008D810E94650C79CF898186958695AC
:101B9000837069F0813009F071CF8D8199819370E4
:101BA000111102C090E080E00E94BE0A67CF8D81D3
:101BB00099819370111102C090E080E00E94A80A00
:101BC0005DCF8981837009F050C0111157CF4D81CD
:101BD000429546954770440F440F8D818F7090E079
:101BE000B0E0A0E0042E04C0880F991FAA1FBB1FFD
:101BF0000A94D2F76D8100E010E0980164FF0FC0F5
:101C00000FE010E020E030E004C0000F111F221FA1
:101C1000331F4A95D2F7009510952095309579811C
:101C20007695769573707D83B901A801482B592B61
:101C30006A2B7B2B49835A836B837C835D8169810B
:101C40007A818B819C81523051F0533059F0513060
:101C500019F00E94151312CF0E94ED120FCF0E94AF
:101C60003D130CCF0E94EB1209CF8695112311F082
:101C700089818170882309F401CF4D814295469571
:101C80004770440F440F8D818F7090E0B0E0A0E06A
:101C9000042E04C0880F991FAA1FBB1F0A94D2F7F5
:101CA0006D8100E010E0980164FF0FC00FE010E0CC
:101CB00020E030E004C0000F111F221F331F4A959F
:101CC000D2F7009510952095309579817695769587
:101CD00073707D83B901A801482B592B6A2B7B2B8C
:101CE00049835A836B837C835D8169817A818B818F
:101CF0009C81523051F0533059F0513019F00E940C
:101D00005E14BCCE0E943614B9CE0E948614B6CEA4
:101D10000E946913B3CE69816F706983112329F022
:101D2000862F0E949F138D81FCCE8D810E94CE0C48
:101D300089810E94D013A2CE7D81723FA1F160F40F
:101D4000703FE1F0713F41F1112309F445C00111E9
:101D50007CCE89818F7124C08D81833F49F1843F7E
:101D600099F7112379F199819F719983892F0E94A5
:101D70009F1363E089810E94271680CE112341F0D2
:101D8000053008F07BCE89818F710E94051476CED4
:101D9000063008F073CEF7CF89818F71112349F295
:101DA0000E949F136BCE89818F711123C9F3C1CF1C
:101DB000112329F089818F710E947A135FCE0E94CE
:101DC00075135CCE81E00E943C16023008F456CEBA
:101DD00082E00E943C1652CE002361F0ED81E9338F
:101DE00009F0CFCEFFEF27EE43E0F1502040404016
:101DF000E1F7C5CE89818F719CCF49814F706D818C
:101E0000C6010E9450060E945F1238CE49814F7071
:101E10006D81C6010E94530631CE0F900F900F9036
:101E20000F900F90DF91CF911F910F91FF90EF9046
:101E3000DF90CF90BF90AF9008950F931F93CF93F3
:101E4000DF93EC01688179818A810E9453158C01AE
:101E50000E94AE140E94EA12B801CE01DF91CF9128
:101E60001F910F910C94D50CCF93DF93EC018B81D4
:101E70009C81892B29F08881998189238F3F19F4CE
:101E8000DF91CF910895CE010E94FE058823C1F312
:101E9000CE010E941D0FCE01DF91CF910C94C80599
:101EA0000E94C4150E94D5150E94F11590E080E0B3
:101EB0000E94A80A90E080E00C94BE0A0E948B1554
:101EC0000C94500F0E94B3150C945E0F282F892F8D
:101ED00082958F70903C80F48A30B0F4843020F486
:101EE000823090F480E008958630E1F781E0283E6A
:101EF00088F0213FB9F70EC08C3011F08F3091F788
:101F000093FB882780F9089581E0203F39F018F489
:101F1000283E40F70895243F29F7FCCF08950E94FA
:101F200047150C94660FCF93DF9300D000D00F922B
:101F3000CDB7DEB70F900F900F900F900F90DF91FD
:101F4000CF910895CF93DF9300D000D000D0CDB7CC
:101F5000DEB726960FB6F894DEBF0FBECDBFDF9179
:101F6000CF9108951F93CF93DF93E091C80116E0BE
:101F70008091C9018E1304C0DF91CF911F91089504
:101F8000CE2FD0E01E9FF0011124E653FE4F40817A
:101F9000518162817381848195810E94A20FFE012B
:101FA0003196E770E5CF4091FA015091FB016091C5
:101FB000FC017091FD018091FE019091FF010C9454
:101FC000A20F1F93CF93DF938091FF01807FA9F42D
:101FD0008091FC01882389F08091C801C091C901DA
:101FE0006091FA017091FB01A091FD01B091FE0199
:101FF000D62FD72316E0C81304C0DF91CF911F91CD
:10200000089590E0109711F0DF3F19F40196877062
:10201000F2CF189F9001199F300D1124F901E6535A
:10202000FE4F41814713F2CF40814613EFCF4281EB
:102030004111ECCF438154814A1B5B0B483C510555
:1020400028F78091FF018F7080618093FF01F90173
:10205000E153FE4F80818F70806180838AEF91E031
:102060000E94340FDF91CF911F910C94B20FAF9269
:10207000BF92CF92DF92EF92FF920F931F93CF9375
:10208000DF93CDB7DEB72B970FB6F894DEBF0FBE48
:10209000CDBF8C0185E0F801DE01179601900D920D
:1020A0008A95E1F7F80140815181E2808AEFC82EDC
:1020B00081E0D82E6091FD017091FE0161157105DE
:1020C00009F444C19091FA012091FB01822F8923E8
:1020D0008F3F09F43BC1A380B480F090FC01F5016F
:1020E000E61BF70BFF2009F4E0C08091FF01382FB9
:1020F000307FE83CF10508F0B2C0311179C0FE2C08
:10210000251323C0941321C0E1101FC08F7080617C
:102110008093FF010E94D30FC6010E94340F80916B
:10212000FF01F80185838F2D2B960FB6F894DEBF43
:102130000FBECDBFDF91CF911F910F91FF90EF9018
:10214000DF90CF90BF90AF900895AB2829F0842FF7
:1021500085238F3F09F016C180E0F82FF170DF2E44
:10216000E091C8012091C90136E080FD1CC0EE203D
:10217000D1F28091FF0181608093FF01F12CD3CFD8
:102180008E2F90E03E9FF0011124E653FE4F6181B7
:10219000651306C06081641303C06281E612E7CF55
:1021A000FC013196E770E213EBCF4F8358878F81A4
:1021B00098850E944715292F22952F70903260F044
:1021C000225F2F70223078F49F7051F0F8019581D2
:1021D000907F31F4D12C0AC09F7011F08823D1F385
:1021E000805E8830B8F3C8010E94340FFD2C9BCF6D
:1021F000251306C0941304C0F801EE2009F470C042
:102200004F8358878F8198850E948F0F882319F1FB
:10221000EE2009F18091FF01803270F02091FA01E7
:102220003091FB013A8329831B82BD82AC828E836D
:10223000CE0101960E94340F86E0F801AAEFB1E0CA
:1022400001900D928A95E1F70E94E10F0E94D30F51
:10225000FF24F39468CFC8010E94340FF9CF3111E5
:1022600013C07A2DBB86AA866E2D8B850E94930F94
:102270008AEF91E00E94340F86E0F60111928A9570
:10228000E9F70E94D30F7ACF2513BACF9413B8CFB2
:10229000E110B6CFF8018583C8010E94340F86E0B3
:1022A000F60111928A95E9F73ECFE83CF10508F076
:1022B00040C0FE2CEE2079F225132AC0941328C0CA
:1022C0008091FF0180FD1BC0982F907FC1F0F80125
:1022D0008583903F31F0982F907F905F8F70892B8E
:1022E0008583C8010E94340F86E0F801AAEFB1E0AF
:1022F00001900D928A95E1F70E94D30F14CF86E0EA
:10230000F801AAEFB1E001900D928A95E1F70BCFA9
:102310004F8358878F8198850E948F0F81118CCFB2
:102320008091FF0181608093FF01C8010E94340FFA
:10233000FACE7A2DBB86AA866E2D8B850E94930FCE
:1023400086E0F60111928A95E9F7D6CFEE2009F4DE
:1023500082CF4F8358878F8198850E948F0FF82EE8
:10236000882309F478CF86E0F801AAEFB1E0019064
:102370000D928A95E1F78AEF91E00E94D70B0E94B7
:10238000E10FBACF81E08E25E8CE1F93CF93DF9384
:10239000CDB7DEB72C970FB6F894DEBF0FBECDBF1A
:1023A0004F83588769877A878B879C87CE010796EA
:1023B0000E943710882369F08A859B85892B39F024
:1023C0004F815885842F85238F3F09F071C016E017
:1023D0005FC086E0FE013796DE01119601900D92F6
:1023E0008A95E1F78A859B85892B89F388859F816A
:1023F00089238F3F61F32091C90130E0C901019623
:10240000877099274091C8014817190671F40E94F6
:10241000620F1092C9011092C80186E0EAEFF1E064
:10242000DF011D928A95E9F7D2CF96E0929FD00105
:10243000939FB00D1124A653BE4FFE01319601901B
:102440000D929A95E1F78093C9010E94B20FBFCF18
:10245000819FC001112486539E4F0E94371088230C
:10246000E9F0E091C8011E9FF0011124E653FE4FF0
:102470004081518162817381848195810E94A20F84
:102480008091C80190E00196877099278093C801D8
:102490008091C8019091C9018913DACF2C960FB6AB
:1024A000F894DEBF0FBECDBFDF91CF911F9108958D
:1024B00069857A858B859C850E94A20F88CFEF92D3
:1024C000FF920F931F93CF93DF938C01892B89F099
:1024D000F12CEE24E394E8012196F80184918437ED
:1024E00009F457C0A0F4823009F43EC048F48130AA
:1024F000D1F0DF91CF911F910F91FF90EF90089550
:102500009CEF980F9037A8F70E94DC0B0AC0853724
:1025100009F44CC09CE7980F903758F78F770E94CA
:10252000650C8E0116C00E5F1F4FFE01849190E274
:10253000980F983060F48770FE2D01C0FF0F8A95C8
:10254000EAF78F2F0E94C7150E94F11502C00E9462
:10255000DC0B8F2D815008F4BECFEFE9FFE03197FF
:10256000F1F700C00000F6CF0E5F1F4FFE0184910F
:1025700090E2980F983050F48770FE2D01C0FF0F45
:102580008A95EAF78F2F0E94CD15DECF0E94650C49
:10259000E0CF0E5F1F4FFE01C491C150D0F28FE912
:1025A0009FE00197F1F700C00000F7CF0E5F1F4FCB
:1025B000FE01F490CECF08950C94DB120E94DC1241
:1025C00060934A0270934B0280934C0290934D02A9
:1025D0000C94500F08950C94DE12CF93DF9300D02B
:1025E00000D0CDB7DEB769837A838B839C838091DB
:1025F0004A0290914B02A0914C02B0914D02298168
:102600003A814B815C81282B392B4A2B5B2B298308
:102610003A834B835C83CA01B9010F900F900F90EE
:102620000F90DF91CF910C94DE12CF93DF9300D007
:1026300000D0CDB7DEB769837A838B839C8380918A
:102640004A0290914B02A0914C02B0914D02298117
:102650003A814B815C81282339234A235B232983D8
:102660003A834B835C83CA01B9010F900F900F909E
:102670000F90DF91CF910C94DE12CF93DF9300D0B7
:1026800000D0CDB7DEB769837A838B839C8380913A
:102690004A0290914B02A0914C02B0914D022981C7
:1026A0003A814B815C81282739274A275B27298378
:1026B0003A834B835C83CA01B9010F900F900F904E
:1026C0000F90DF91CF910C94DE120C94DB120C94DE
:1026D00065130E94671360934602709347028093CC
:1026E0004802909349020C94500F60E070E0CB01D7
:1026F0000C9469130F931F93CF93DF9300D000D0F6
:10270000CDB7DEB741E050E060E070E08A019B01A8
:1027100004C0000F111F221F331F8A95D2F70983AF
:102720001A832B833C83C901B8010F900F900F903F
:102730000F90DF91CF911F910F910C9469130F931C
:102740001F93CF93DF9300D000D0CDB7DEB741E029
:1027500050E060E070E004C0440F551F661F771F13
:102760008A95D2F78091460290914702A091480243
:10277000B09149028A019B01082B192B2A2B3B2B74
:1027800009831A832B833C83C901B8010F900F90F2
:102790000F900F90DF91CF911F910F910C946913BF
:1027A0000F931F93CF93DF9300D000D0CDB7DEB748
:1027B00041E050E060E070E004C0440F551F661F28
:1027C000771F8A95D2F740955095609570958091C6
:1027D000460290914702A0914802B09149028A01B5
:1027E0009B01082319232A233B2309831A832B8364
:1027F0003C83C901B8010F900F900F900F90DF91AB
:10280000CF911F910F910C9469130F931F93CF9346
:10281000DF9300D000D0CDB7DEB741E050E060E0FC
:1028200070E004C0440F551F661F771F8A95D2F7CA
:102830008091460290914702A0914802B0914902CE
:102840008A019B01082719272A273B2709831A8316
:102850002B833C83C901B8010F900F900F900F900C
:10286000DF91CF911F910F910C946913CF93DF9358
:1028700000D000D0CDB7DEB769837A838B839C8389
:102880008091460290914702A0914802B09149027E
:1028900029813A814B815C81282B392B4A2B5B2B78
:1028A00029833A834B835C83CA01B9010F900F904F
:1028B0000F900F90DF91CF910C946913CF93DF931A
:1028C00000D000D0CDB7DEB769837A838B839C8339
:1028D0008091460290914702A0914802B09149022E
:1028E00029813A814B815C81282339234A235B2348
:1028F00029833A834B835C83CA01B9010F900F90FF
:102900000F900F90DF91CF910C946913CF93DF93C9
:1029100000D000D0CDB7DEB769837A838B839C83E8
:102920008091460290914702A0914802B0914902DD
:1029300029813A814B815C81282739274A275B27E7
:1029400029833A834B835C83CA01B9010F900F90AE
:102950000F900F90DF91CF910C9469130895990F08
:10296000990F990FE92FE80F877041E001C0440FDC
:102970008A95EAF7E695E695E69585E0E89FF00109
:102980001124E050FE4F30E020E070E05191DF0173
:102990001197CB01022E02C0969587950A94E2F713
:1029A000817081958527842385278C932F5F3F4FE6
:1029B0002530310559F70895E92FEE0FEE0FEE0F90
:1029C000E80F982F9770E695E695E69585E0E89FE5
:1029D000F0011124E050FE4F50E040E080E02191F2
:1029E00030E0092E02C0369527950A94E2F721704F
:1029F0003327042E01C0220F0A94EAF7822B4F5F7F
:102A00005F4F4530510559F70895BF92CF92DF923D
:102A1000EF92FF920F931F93CF93DF938C01C0909F
:102A20004602D0904702E0904802F090490280911F
:102A30004A0290914B02A0914C02B0914D02C82ADB
:102A4000D92AEA2AFB2ACFE1D0E0BC2ED701C60161
:102A50000C2E04C0B695A795979587950A94D2F742
:102A600080FD0EC0219788F7B12C8B2DDF91CF917F
:102A70001F910F91FF90EF90DF90CF90BF9008953E
:102A8000B8018C2F0E947106019761F3EECFCF93AE
:102A9000DF93D82FC92F0E9405156D2F7C2FDF9152
:102AA000CF910C9471061F93CF93DF93162FD72FDE
:102AB0009091C701992339F0862F972FDF91CF91FD
:102AC0001F910C944715882391F0862F972F0E9411
:102AD0000515C82F682F812F9D2F0E94AF14612FDD
:102AE0007D2F8C2FDF91CF911F910C947106862F33
:102AF000972F0E94DC14C82FF2CF682F809100011D
:102B0000909101010C944917682F809100019091D8
:102B100001010C944B1780910001909101010C94DC
:102B20004D1780914E0285958595859508958091E4
:102B30004E028770089590914E02977081E009F4DB
:102B400080E0089580915A02089590915A02982B3E
:102B500090935A020895982F909580915A02892354
:102B600080935A02089510925A0208959091590242
:102B7000982B909359020895982F9095809159021F
:102B800089238093590208951092590208959091D3
:102B90005802982B909358020895982F9095809101
:102BA000580289238093580208951092580208957C
:102BB00080914F02089508950C94DB1590914F0277
:102BC000981721F080934F020C94DC1508958091A2
:102BD0004F02882329F010924F0280E00C94DC15FC
:102BE0000895E0910001F091010180915A028083E3
:102BF000E0910001F0910101808190915902892BAF
:102C00008083E0910001F091010180819091580250
:102C1000892B808390914F02992381F0E0910001EC
:102C2000F09101018081892B808380910001909136
:102C300001010E94FD1681110E94E715809100019B
:102C4000909101010C945C0A08950C94241698E06C
:102C5000899F90011124622B60934E020E949F1362
:102C600080914E028595859585950C942516109238
:102C70004E0280E00C94251690914E028095892397
:102C800080934E02282F277071F4282F082E000CF5
:102C9000330B9217130639F08595859585950E941B
:102CA000D0130C943716089590938B0180938A016A
:102CB000089590E080E00E94DA1F9C0181E02C3EA4
:102CC0003E4F09F080E0089582E090E00C94D21F1E
:102CD00083E090E00C94D21FCF9384E090E00E94B8
:102CE000D21FC82F81E290E00E94D21F982F8C2F14
:102CF000CF910895CF93682FC92F84E090E00E9470
:102D0000E01F6C2F81E290E0CF910C94E01FAB01AB
:102D1000BC018FE090E00C94F21FAB01BC0183E199
:102D200090E00C94F21F60E070E0CB010C948D16E3
:102D300060E070E0CB010E9487160C9493166CEE55
:102D40007EEF90E080E00E94FE1F60E082E090E075
:102D50000E94E01F60E083E090E00E94E01F10927C
:102D60004A0210924B0210924C0210924D0260E007
:102D700084E090E00E94E01F60E081E290E00E9429
:102D8000E01F60E085E090E00E94E01F60E086E0E8
:102D900090E00E94E01F6FEF87E090E00E94E01F4C
:102DA00040E050E0BA0188E090E00E94F21F60E04D
:102DB0008DE090E00E94E01F40E050E0BA0188E121
:102DC00090E00E94F21F60E087E190E00E94E01F27
:102DD00040E050E0BA018CE190E00E94F21F60E018
:102DE00080E290E00E94E01F0C9498160C949F16CD
:102DF000682F8EE090E00C94E01FAC019C012E5FE8
:102E00003F4F485F5F4F80E02417350709F408956E
:102E1000F90191919F019923B9F38F5FF5CF9C013F
:102E2000662351F0FC013296285F3F4F819186174F
:102E300029F0E217F307D1F780E0089581E00895C3
:102E40009C01FC0132968FEF90E04191461751F0C2
:102E50008F3F19F4411101C0892F9F5F9630A9F768
:102E60008F3F09F40895280F311D87FD3A95F90128
:102E7000628308959C01FC013296285F3F4F819147
:102E8000861303C0DF0111971C92E217F307B9F70D
:102E900008950C9420170C943A17FC01329686E0A2
:102EA000DF011D928A95E9F70895089508950C941D
:102EB00056170E94571780917502843049F110927D
:102EC0005C0288E190E020E40FB6F894A895809326
:102ED00060000FBE2093600080E00E94E6050E9423
:102EE000571783B7817F846083BF83B7816083BFB7
:102EF0007894889583B78E7F83BF0FB6F894A89592
:102F000080916000886180936000109260000FBE25
:102F100008950895CF930E9455170E9451030E946F
:102F20008917C0E08C2F0E949A03811105C0CF5FE2
:102F3000CE30C1F7CF91089581E0FCCF08950C9475
:102F40009E170E94620F0E94500A0E94E6050C9490
:102F50009F171F921FB61F9211248F939F93AF93B9
:102F6000BF9380915C02811113C080916B0290919C
:102F70006C02A0916D02B0916E024196A11DB11D2F
:102F800080936B0290936C02A0936D02B0936E02DB
:102F9000BF91AF919F918F911F901FBE1F90189569
:102FA00082E084BD93E095BD9AEF97BD80936E005B
:102FB00008952FB7F89480916B0290916C02A091C4
:102FC0006D02B0916E022FBF08959C014FB7F89427
:102FD00080916B0290916C02A0916D02B0916E0293
:102FE0004FBF821B930B089578941F921FB61F92B8
:102FF00011248F939F93AF93BF9380916B02909115
:103000006C02A0916D02B0916E020196A11DB11DDE
:1030100080936B0290936C02A0936D02B0936E024A
:10302000BF91AF919F918F911F901FBE1F901895D8
:1030300087E797E7909301088093000888E19AE07A
:103040000FB6F894A895809360000FBE909360002F
:10305000FFCFCF93DF9300D000D0CDB7DEB70E9473
:103060005916811102C00E94F6160E9464168093C0
:103070005B020E946C169093700280936F020E9414
:103080006816282F30E050E040E029833A834B83D4
:103090005C83CA01B9010F900F900F900F90DF91E0
:1030A000CF910C94EB1280916802089508959FB718
:1030B000F89410925F029FBF90917502943009F0CE
:1030C00048C02091E9002F703091EC00932F91704F
:1030D00030FD90E8922B23E02093E9002091EB0053
:1030E00020FF34C02091EE0027FF30C020915D0208
:1030F000222321F02091E80025FF28C010925D02D4
:1031000026E03091E80035FF14C08093F1008091F3
:10311000E80085FD27C08091E80080FFFCCF80910A
:10312000E8008E778093E8009F709093E90080E03C
:10313000089530917502343049F43091EB0035FD3B
:1031400005C0215041F481E080935D029F7090930F
:10315000E9008FEF0895EFE9FFE03197F1F700C044
:103160000000CFCF8FB7F89421E020935F028FBF8C
:10317000DBCFCF93DF9300D00F92CDB7DEB7909126
:103180007502943019F589836A837B8382E080938A
:10319000E9008FEF9091E800815095FD06C095ED14
:1031A0009A95F1F700008111F5CF8091E80085FF35
:1031B0000DC050E040E063E070E0CE0101960E9457
:1031C000391B8091E8008E778093E8000F900F9074
:1031D0000F90DF91CF910895CF93DF93D82FC92F10
:1031E0000E941C1B823011F0843039F46D2F7C2F2B
:1031F00084E0DF91CF910C94B918DF91CF910895BD
:10320000BC0183E00C94B918CF93DF93D82FC92F5A
:103210000E941C1B823011F0843049F581E08093BC
:10322000E9008FEF9091E800815095FD06C095ED83
:103230009A95F1F700008111F5CF8091E80085FFA4
:1032400016C050E040E068E070E08D2F9C2F0E9497
:10325000391B8091E8008E778093E80088E0ED2F9D
:10326000FC2FA0E6B2E001900D928A95E1F7DF9184
:10327000CF9108958DE393E00E94980280917402AB
:10328000811109C00E94C11C0E941E1D8091E20094
:1032900084608093E200089589E393E00E9498029D
:1032A00010927402089585E393E00C94980281E3F0
:1032B00093E00C9498028DE293E00E9498020C94A3
:1032C000A11720915E022F5F822F62E30E94C01F30
:1032D000992319F020935E02089510925E02809166
:1032E0005F028823F1F0809175028430C1F49091DF
:1032F000E9009F702091EC00822F817020FD80E812
:10330000892B93E09093E9009091EB0090FF04C02B
:103310009091EE0097FD08C08F708093E9001092A5
:103320005F0208951092F1009091E80095FDFACFA8
:103330009091E80090FFF0CF9091E8009E779093F5
:10334000E800EACF42E061EC81E00E943D1C42E2ED
:1033500061EC82E00E943D1C42E261EC83E00C944F
:103360003D1C80917702893089F148F4823009F45C
:103370009DC0833009F458C0813041F008958A30EF
:1033800009F484C08B3009F46AC0089580917602F4
:10339000813A09F048C08091E800877F8093E80077
:1033A00080917A0290917B02892B61F468E080E63B
:1033B00092E070E00E94881B8091E8008B778093F8
:1033C000E800089560E090E080E0F3CF809176021D
:1033D000813249F580917A0290917B02029718F52B
:1033E0008091E800877F8093E8008091E80082FF69
:1033F00016C09091F3008091F200029729F4809119
:10340000F1008B7F813021F48091F100809368027C
:103410008091E8008B778093E8000C94711C809178
:1034200075028111E2CF089580917602813AD9F731
:1034300080917A0290917B02892BA9F78091E80014
:10344000877F8093E8008091E80080FFFCCF809127
:103450000C018093F1008091E8008E77DCCF8091A1
:103460007602813201F780917A0290917B02892B5A
:10347000D1F68091E800877F8093E8000E94711C5C
:103480008091780280930C010C94620F80917602F7
:10349000813249F68091E800877F8093E8000E949E
:1034A000711C80917902809369020895809176025F
:1034B000813A09F0B8CF8091E800877F8093E800D7
:1034C0008091E80080FFFCCF80916902C2CF84B771
:1034D000877F84BF0FB6F894A895809160008861BB
:1034E00080936000109260000FBE80E890E00FB6FD
:1034F000F89480936100909361000FBE0E94E20AED
:103500000E94C11C0E941E1D8091E2008460809375
:10351000E20087E598E10E94541678940E94A51F66
:103520000E94EC0A82E091E00E944B0A8CE193E059
:103530000E94980280917502853019F00E941C0B40
:10354000F9CF88E193E00E9498020E945917809178
:103550007302882379F30E948A17882359F30E9403
:10356000231BE8CF0C94B41AFC01CB01DA012F2FF6
:10357000332723303105D1F070F42130310509F4BF
:103580004EC02230310569F48BE590E02DE633E042
:103590002D933C9308952132310521F122323105DA
:1035A00071F190E080E030E020E0F2CFCF01992788
:1035B000E230A9F08330910550F4009769F0EBE513
:1035C000F3E0019771F7849190E09F01E1CFE1E48E
:1035D000F3E00397C1F3E5CFE9E6F3E0F4CFE7E4E6
:1035E000F3E0F1CF63307105E0F6880F991FFC011D
:1035F000EC57FE4F2081318189E090E0C9CF6330E4
:10360000710578F6FB01EE0FFF1FE258FE4F208197
:10361000318185589E4FFC01808190E0B9CF82E1D5
:1036200090E028EC33E0B4CF80917502843011F43F
:1036300082E0089581E0089580916A02811102C0BC
:103640000C94141B089580E189BD82E189BD09B401
:1036500000FEFDCF8091D8008F7D8093D8008091AF
:10366000E00082608093E0008091E00081FDFCCF6B
:103670000895AF92BF92CF92DF92FF920F931F9364
:10368000CF93DF936C01EB018A010E94901CF82E0E
:10369000811123C00115110539F0F8018081918154
:1036A000C81BD90BC80ED91EB12CA12C2097A9F08C
:1036B0008091E80085FD22C08091E8008E7780939C
:1036C000E80001151105A1F0F80180819181A80E93
:1036D000B91EB182A08285E0F82E8F2DDF91CF91A7
:1036E0001F910F91FF90DF90CF90BF90AF90089502
:1036F0000E94901C8823D1F2F82EEFCFF601819121
:103700006F018093F1002197FFEFAF1ABF0ACECF70
:10371000FC01CB0120917C0230917D0226173707F6
:1037200090F0009729F42091E8002E772093E8008C
:1037300040E0009751F4411108C08091E80082FFF9
:1037400031C080E00895C901F3CF20917502222392
:10375000A9F12530A9F12091E80023FD2DC0209189
:10376000E80022FDEACF2091E80020FFE2CF30916F
:10377000F3002091F200009719F02830310558F03D
:1037800041E02830310509F040E02091E8002E7733
:103790002093E800CECF41914093F10001972F5F35
:1037A0003F4FE9CF80917502882341F0853041F089
:1037B0008091E80083FFC1CF81E0089582E0089501
:1037C00083E00895FC01CB0120917C0230917D02C1
:1037D0002617370790F0009729F42091E8002E77FC
:1037E0002093E80040E0009751F4411108C0809117
:1037F000E80082FF32C080E00895C901F3CF209134
:1038000075022223B1F12530B1F12091E80023FDAA
:103810002EC02091E80022FDEACF2091E80020FF91
:10382000E2CF3091F3002091F200009719F0283098
:10383000310558F041E02830310509F040E0209191
:10384000E8002E772093E800CECF44914093F1001A
:10385000319601972F5F3F4FE8CF80917502882303
:1038600041F0853041F08091E80083FFC0CF81E0D6
:10387000089582E0089583E00895982F973028F006
:103880008F708093E90081E008959093E900242FE0
:10389000762F50E0981731F07091EC002091ED00F8
:1038A0005091F00021FD02C09F5FE8CF3091EB0006
:1038B0003E7F3093EB003091ED003D7F3093ED0083
:1038C0003091EB0031603093EB007093EC0020936B
:1038D000ED005093F0002091EE0027FDE5CF80E051
:1038E00008958091760287FF13C08091E80082FFDF
:1038F00006C08091E8008B778093E80004C0809137
:1039000075028111F2CF0895809175028823D9F351
:103910008091E80080FFF8CF8091E8008E77ECCFAF
:103920002091E4003091E50095E6A9012091EC009A
:10393000822F817020FF06C08091E80080FF06C0C2
:1039400080E008952091E80022FD1AC08091750260
:10395000882389F0853089F08091EB0085FD0FC0C8
:103960002091E4003091E50042175307F9F291509D
:10397000E1F684E0089582E0089583E0089581E00F
:1039800008950E942F1D0E94371DE0EEF0E0808117
:1039900081608083E8EDF0E080818F77808319BCBF
:1039A000A7EDB0E08C918E7F8C9380818F7E808399
:1039B0001092740208950F931F93CF93DF930E9488
:1039C0002F1D0E94371DC8EDD0E088818F77888336
:1039D00088818068888388818F7D888319BC109254
:1039E000750210927102109273021092720200EE30
:1039F00010E0F80180818B7F8083888181608883DB
:103A000042E060E080E00E943D1CE1EEF0E0808159
:103A10008E7F8083E2EEF0E0808181608083808110
:103A200088608083F80180818E7F808388818061B7
:103A30008883DF91CF911F910F910895E8EDF0E019
:103A400080818F7E8083E7EDF0E0808181608083DC
:103A500084E082BF81E0809374020C94DB1CE8ED6B
:103A6000F0E080818E7F80831092E20008951092B2
:103A7000DA001092E10008951F920F920FB60F9294
:103A800011242F933F934F935F936F937F938F9363
:103A90009F93AF93BF93EF93FF938091E10082FFD9
:103AA0000BC08091E20082FF07C08091E1008B7F14
:103AB0008093E1000E9461198091DA0080FF19C0B3
:103AC0008091D80080FF15C08091DA008E7F8093AE
:103AD000DA008091D90080FF94C080E189BD82E145
:103AE00089BD09B400FEFDCF81E0809375020E947C
:103AF0003A198091E10080FF19C08091E20080FFB7
:103B000015C08091E2008E7F8093E2008091E200F8
:103B100080618093E2008091D80080628093D80019
:103B200019BC85E0809375020E9457198091E100CD
:103B300084FF29C08091E20084FF25C080E189BD17
:103B400082E189BD09B400FEFDCF8091D8008F7D50
:103B50008093D8008091E1008F7E8093E100809176
:103B6000E2008F7E8093E2008091E200816080938A
:103B7000E20080917102882309F449C084E08093B7
:103B800075020E945B198091E10083FF29C080913A
:103B9000E20083FF25C08091E100877F8093E100F0
:103BA00082E080937502109271028091E1008E7F15
:103BB0008093E1008091E2008E7F8093E20080910B
:103BC000E20080618093E20042E060E080E00E94D9
:103BD0003D1C8091F00088608093F0000E94531992
:103BE000FF91EF91BF91AF919F918F917F916F91D5
:103BF0005F914F913F912F910F900FBE0F901F90AB
:103C0000189519BC109275020E944C1972CF8091C0
:103C1000E30087FD02C081E0B2CF83E0B0CF1F9206
:103C20000F920FB60F9211242F933F934F935F93F0
:103C30006F937F938F939F93AF93BF93CF93DF93B4
:103C4000EF93FF93D091E900DF708091EC00C82FD3
:103C5000C17080FDC0E81092E9008091F000877F7C
:103C60008093F00078940E94531E1092E900809196
:103C7000F00088608093F000CD2BCF70C093E900F6
:103C8000FF91EF91DF91CF91BF91AF919F918F9174
:103C90007F916F915F914F913F912F910F900FBE48
:103CA0000F901F9018951F93CF93DF93CDB7DEB77A
:103CB000AA970FB6F894DEBF0FBECDBF86E792E09D
:103CC000FC0101962091F100208322E08E379207BB
:103CD000B9F70E94B1198091E80083FF1EC180915D
:103CE0007602909177029A3008F017C1E92FF0E040
:103CF000EE5BFF4D0C94CC1F803899F0823809F0B0
:103D00000CC180917A028F70873008F006C18093D1
:103D1000E9008091EB0085FB882780F91092E9008B
:103D200006C080917202909173029111826090910D
:103D3000E800977F9093E8008093F1001092F100E3
:103D40008091E8008E77E5C0882309F4D3C08230E3
:103D500009F0E3C0809178028111D6C080917A0287
:103D60008F702FEF280F263008F0D7C08093E9001E
:103D70002091EB0020FFC8C0933031F48091EB001C
:103D800080628093EB00C0C09091EB0090619093B3
:103D9000EB0021E030E001C0220F8A95EAF7209382
:103DA000EA001092EA008091EB008860EACF81116E
:103DB000B4C0109178021F778091E3008078812B46
:103DC0008093E3008091E800877F8093E8000E9461
:103DD000711C8091E80080FFFCCF8091E300806837
:103DE0008093E30082E0111183E08093750295C017
:103DF0008058823008F091C08091780290917902C9
:103E00008C3D23E09207A1F583E08A838AE28983CF
:103E10004FB7F894DE01139620E03EE051E2E32F25
:103E2000F0E050935700E49120FF03C0E295EF705B
:103E30003F5FEF708E2F90E0EA30C0F0C7968D9311
:103E40009D932F5F243159F74FBF8091E800877F02
:103E50008093E8006AE270E0CE0101960E94881B20
:103E60008091E8008B778093E80057C0C096E7CF39
:103E700060917A0270917B02AE014F5F5F4F0E94AA
:103E8000B21ABC01892B09F448C08091E800877FF1
:103E90008093E80089819A810E94E21BE1CF8038FB
:103EA000E1F58091E800877F8093E80080917102BE
:103EB0008093F10045CF811130C09091780292300B
:103EC00060F58091E800877F8093E800909371020D
:103ED0000E94711C80917102882311F084E005C05A
:103EE0008091E30087FDFACF81E0809375020E9404
:103EF000A21913C080917802813079F481E0933067
:103F000009F080E0809373021092E9008091E8004C
:103F1000877F8093E8000E94711C8091E80083FFF6
:103F20000AC08091E800877F8093E8008091EB00D1
:103F300080628093EB00AA960FB6F894DEBF0FBEA6
:103F4000CDBFDF91CF911F910895CF9380917502DE
:103F50008823A1F0C091E900CF709091EC00892FE7
:103F6000817090FD80E8C82B1092E9008091E800F4
:103F700083FD0E94531ECF70C093E900CF91089536
:103F8000991B79E004C0991F961708F0961B881FAB
:103F90007A95C9F780950895EE0FFF1F0590F4916B
:103FA000E02D0994F999FECF92BD81BDF89A992729
:103FB00080B50895A8E1B0E042E050E00C940620FE
:103FC000262FF999FECF92BD81BDF89A019700B4D2
:103FD000021639F01FBA20BD0FB6F894FA9AF99A72
:103FE0000FBE08950396272F0E94E11F0E94E01F35
:103FF000252F0E94E11F242F0C94E11F0196272FEB
:104000000E94E11F0C94E01FDC01CB01FC01F99937
:10401000FECF06C0F2BDE1BDF89A319600B40D9214
:1040200041505040B8F70895F894FFCF96099C0985
:10403000A009AE09B209B609BA09C009C809CC0974
:10404000D009D409E009E409E809EC09F209100AE9
:10405000FA09A409AA09D809DC09C409F609060A5B
:10406000190A1D0A0E0D0E0D700D700DC50D3E0DB9
:104070003E0D3E0DE10D8B0E9C0E9C0EFD0E3E0D79
:104080003E0D060F7C1EA41E8D1FA41E8D1FD71E65
:08409000F81E8D1F4F1F5B1F7E
:1040980050025318041956180019EC1801E200E9E7
:1040A80000EA00B500B600B700CD008301CC008A55
:1040B80001920194012102230224022502260227EB
:1040C800022A02B300B4006F007000000000005E16
:1040D80008750858085B085B0857085708E200E9A4
:1040E80000EA00B500B600B700CD008301CC008A15
:1040F80001920194012102230224022502260227AB
:10410800022A02B300B4006F0070004032222E046D
:0A411800FC03DA037F039803B103F0
:00000001FF
